{
	"data": {
		"bytecode": {
			"linkReferences": {},
			"object": "608060405234801561000f575f80fd5b5060405161102a38038061102a83398181016040528101906100319190610190565b335f806101000a81548173ffffffffffffffffffffffffffffffffffffffff021916908373ffffffffffffffffffffffffffffffffffffffff1602179055508260015f6101000a81548173ffffffffffffffffffffffffffffffffffffffff021916908373ffffffffffffffffffffffffffffffffffffffff1602179055508160025f6101000a81548173ffffffffffffffffffffffffffffffffffffffff021916908373ffffffffffffffffffffffffffffffffffffffff160217905550806003819055505050506101e0565b5f80fd5b5f73ffffffffffffffffffffffffffffffffffffffff82169050919050565b5f61012c82610103565b9050919050565b61013c81610122565b8114610146575f80fd5b50565b5f8151905061015781610133565b92915050565b5f819050919050565b61016f8161015d565b8114610179575f80fd5b50565b5f8151905061018a81610166565b92915050565b5f805f606084860312156101a7576101a66100ff565b5b5f6101b486828701610149565b93505060206101c586828701610149565b92505060406101d68682870161017c565b9150509250925092565b610e3d806101ed5f395ff3fe608060405234801561000f575f80fd5b506004361061007b575f3560e01c80635f64b55b116100595780635f64b55b146100d75780638da5cb5b146100f5578063db068e0e14610113578063e4b800481461012f5761007b565b80630fc63d101461007f5780633494b0991461009d5780633ba0b9a9146100b9575b5f80fd5b61008761014b565b60405161009491906108f2565b60405180910390f35b6100b760048036038101906100b29190610942565b610170565b005b6100c1610466565b6040516100ce919061097c565b60405180910390f35b6100df61046c565b6040516100ec91906108f2565b60405180910390f35b6100fd610491565b60405161010a91906109b5565b60405180910390f35b61012d60048036038101906101289190610942565b6104b4565b005b61014960048036038101906101449190610942565b610582565b005b60015f9054906101000a900473ffffffffffffffffffffffffffffffffffffffff1681565b5f670de0b6b3a76400006003548361018891906109fb565b6101929190610a69565b90508060025f9054906101000a900473ffffffffffffffffffffffffffffffffffffffff1673ffffffffffffffffffffffffffffffffffffffff166370a08231306040518263ffffffff1660e01b81526004016101ef91906109b5565b602060405180830381865afa15801561020a573d5f803e3d5ffd5b505050506040513d601f19601f8201168201806040525081019061022e9190610aad565b101561026f576040517f08c379a000000000000000000000000000000000000000000000000000000000815260040161026690610b32565b60405180910390fd5b60015f9054906101000a900473ffffffffffffffffffffffffffffffffffffffff1673ffffffffffffffffffffffffffffffffffffffff166323b872dd3330856040518463ffffffff1660e01b81526004016102cd93929190610b50565b6020604051808303815f875af11580156102e9573d5f803e3d5ffd5b505050506040513d601f19601f8201168201806040525081019061030d9190610bba565b61034c576040517f08c379a000000000000000000000000000000000000000000000000000000000815260040161034390610c2f565b60405180910390fd5b60025f9054906101000a900473ffffffffffffffffffffffffffffffffffffffff1673ffffffffffffffffffffffffffffffffffffffff1663a9059cbb33836040518363ffffffff1660e01b81526004016103a8929190610c4d565b6020604051808303815f875af11580156103c4573d5f803e3d5ffd5b505050506040513d601f19601f820116820180604052508101906103e89190610bba565b610427576040517f08c379a000000000000000000000000000000000000000000000000000000000815260040161041e90610cbe565b60405180910390fd5b7f3d2365974e1553555caaf8f39f1c92d01d98893b835ffadae06aee77e60768ea33838360405161045a93929190610cdc565b60405180910390a15050565b60035481565b60025f9054906101000a900473ffffffffffffffffffffffffffffffffffffffff1681565b5f8054906101000a900473ffffffffffffffffffffffffffffffffffffffff1681565b5f8054906101000a900473ffffffffffffffffffffffffffffffffffffffff1673ffffffffffffffffffffffffffffffffffffffff163373ffffffffffffffffffffffffffffffffffffffff1614610541576040517f08c379a000000000000000000000000000000000000000000000000000000000815260040161053890610d81565b60405180910390fd5b806003819055507f388f446e9526fe5c9af20a5919b342370c8a7c0cb05245afe1e545658fa3cdba81604051610577919061097c565b60405180910390a150565b5f600354670de0b6b3a76400008361059a91906109fb565b6105a49190610a69565b90508060015f9054906101000a900473ffffffffffffffffffffffffffffffffffffffff1673ffffffffffffffffffffffffffffffffffffffff166370a08231306040518263ffffffff1660e01b815260040161060191906109b5565b602060405180830381865afa15801561061c573d5f803e3d5ffd5b505050506040513d601f19601f820116820180604052508101906106409190610aad565b1015610681576040517f08c379a000000000000000000000000000000000000000000000000000000000815260040161067890610de9565b60405180910390fd5b60025f9054906101000a900473ffffffffffffffffffffffffffffffffffffffff1673ffffffffffffffffffffffffffffffffffffffff166323b872dd3330856040518463ffffffff1660e01b81526004016106df93929190610b50565b6020604051808303815f875af11580156106fb573d5f803e3d5ffd5b505050506040513d601f19601f8201168201806040525081019061071f9190610bba565b61075e576040517f08c379a000000000000000000000000000000000000000000000000000000000815260040161075590610cbe565b60405180910390fd5b60015f9054906101000a900473ffffffffffffffffffffffffffffffffffffffff1673ffffffffffffffffffffffffffffffffffffffff1663a9059cbb33836040518363ffffffff1660e01b81526004016107ba929190610c4d565b6020604051808303815f875af11580156107d6573d5f803e3d5ffd5b505050506040513d601f19601f820116820180604052508101906107fa9190610bba565b610839576040517f08c379a000000000000000000000000000000000000000000000000000000000815260040161083090610c2f565b60405180910390fd5b7f5fa2719218f2053e6b155c250cedf89473581044ade40b052b581c03089658a233838360405161086c93929190610cdc565b60405180910390a15050565b5f73ffffffffffffffffffffffffffffffffffffffff82169050919050565b5f819050919050565b5f6108ba6108b56108b084610878565b610897565b610878565b9050919050565b5f6108cb826108a0565b9050919050565b5f6108dc826108c1565b9050919050565b6108ec816108d2565b82525050565b5f6020820190506109055f8301846108e3565b92915050565b5f80fd5b5f819050919050565b6109218161090f565b811461092b575f80fd5b50565b5f8135905061093c81610918565b92915050565b5f602082840312156109575761095661090b565b5b5f6109648482850161092e565b91505092915050565b6109768161090f565b82525050565b5f60208201905061098f5f83018461096d565b92915050565b5f61099f82610878565b9050919050565b6109af81610995565b82525050565b5f6020820190506109c85f8301846109a6565b92915050565b7f4e487b71000000000000000000000000000000000000000000000000000000005f52601160045260245ffd5b5f610a058261090f565b9150610a108361090f565b9250828202610a1e8161090f565b91508282048414831517610a3557610a346109ce565b5b5092915050565b7f4e487b71000000000000000000000000000000000000000000000000000000005f52601260045260245ffd5b5f610a738261090f565b9150610a7e8361090f565b925082610a8e57610a8d610a3c565b5b828204905092915050565b5f81519050610aa781610918565b92915050565b5f60208284031215610ac257610ac161090b565b5b5f610acf84828501610a99565b91505092915050565b5f82825260208201905092915050565b7f4e6f7420656e6f75676820746f6b656e42206c69717569646974792e000000005f82015250565b5f610b1c601c83610ad8565b9150610b2782610ae8565b602082019050919050565b5f6020820190508181035f830152610b4981610b10565b9050919050565b5f606082019050610b635f8301866109a6565b610b7060208301856109a6565b610b7d604083018461096d565b949350505050565b5f8115159050919050565b610b9981610b85565b8114610ba3575f80fd5b50565b5f81519050610bb481610b90565b92915050565b5f60208284031215610bcf57610bce61090b565b5b5f610bdc84828501610ba6565b91505092915050565b7f546f6b656e41207472616e73666572206661696c65642e0000000000000000005f82015250565b5f610c19601783610ad8565b9150610c2482610be5565b602082019050919050565b5f6020820190508181035f830152610c4681610c0d565b9050919050565b5f604082019050610c605f8301856109a6565b610c6d602083018461096d565b9392505050565b7f546f6b656e42207472616e73666572206661696c65642e0000000000000000005f82015250565b5f610ca8601783610ad8565b9150610cb382610c74565b602082019050919050565b5f6020820190508181035f830152610cd581610c9c565b9050919050565b5f606082019050610cef5f8301866109a6565b610cfc602083018561096d565b610d09604083018461096d565b949350505050565b7f4f6e6c7920746865206f776e65722063616e20706572666f726d2074686973205f8201527f616374696f6e2e00000000000000000000000000000000000000000000000000602082015250565b5f610d6b602783610ad8565b9150610d7682610d11565b604082019050919050565b5f6020820190508181035f830152610d9881610d5f565b9050919050565b7f4e6f7420656e6f75676820746f6b656e41206c69717569646974792e000000005f82015250565b5f610dd3601c83610ad8565b9150610dde82610d9f565b602082019050919050565b5f6020820190508181035f830152610e0081610dc7565b905091905056fea26469706673582212204cff252cbb699f3bf8606cb8f7bb7e05adf5544a052d57c4c5598b9a3d6751f664736f6c634300081a0033",
			"opcodes": "PUSH1 0x80 PUSH1 0x40 MSTORE CALLVALUE DUP1 ISZERO PUSH2 0xF JUMPI PUSH0 DUP1 REVERT JUMPDEST POP PUSH1 0x40 MLOAD PUSH2 0x102A CODESIZE SUB DUP1 PUSH2 0x102A DUP4 CODECOPY DUP2 DUP2 ADD PUSH1 0x40 MSTORE DUP2 ADD SWAP1 PUSH2 0x31 SWAP2 SWAP1 PUSH2 0x190 JUMP JUMPDEST CALLER PUSH0 DUP1 PUSH2 0x100 EXP DUP2 SLOAD DUP2 PUSH20 0xFFFFFFFFFFFFFFFFFFFFFFFFFFFFFFFFFFFFFFFF MUL NOT AND SWAP1 DUP4 PUSH20 0xFFFFFFFFFFFFFFFFFFFFFFFFFFFFFFFFFFFFFFFF AND MUL OR SWAP1 SSTORE POP DUP3 PUSH1 0x1 PUSH0 PUSH2 0x100 EXP DUP2 SLOAD DUP2 PUSH20 0xFFFFFFFFFFFFFFFFFFFFFFFFFFFFFFFFFFFFFFFF MUL NOT AND SWAP1 DUP4 PUSH20 0xFFFFFFFFFFFFFFFFFFFFFFFFFFFFFFFFFFFFFFFF AND MUL OR SWAP1 SSTORE POP DUP2 PUSH1 0x2 PUSH0 PUSH2 0x100 EXP DUP2 SLOAD DUP2 PUSH20 0xFFFFFFFFFFFFFFFFFFFFFFFFFFFFFFFFFFFFFFFF MUL NOT AND SWAP1 DUP4 PUSH20 0xFFFFFFFFFFFFFFFFFFFFFFFFFFFFFFFFFFFFFFFF AND MUL OR SWAP1 SSTORE POP DUP1 PUSH1 0x3 DUP2 SWAP1 SSTORE POP POP POP POP PUSH2 0x1E0 JUMP JUMPDEST PUSH0 DUP1 REVERT JUMPDEST PUSH0 PUSH20 0xFFFFFFFFFFFFFFFFFFFFFFFFFFFFFFFFFFFFFFFF DUP3 AND SWAP1 POP SWAP2 SWAP1 POP JUMP JUMPDEST PUSH0 PUSH2 0x12C DUP3 PUSH2 0x103 JUMP JUMPDEST SWAP1 POP SWAP2 SWAP1 POP JUMP JUMPDEST PUSH2 0x13C DUP2 PUSH2 0x122 JUMP JUMPDEST DUP2 EQ PUSH2 0x146 JUMPI PUSH0 DUP1 REVERT JUMPDEST POP JUMP JUMPDEST PUSH0 DUP2 MLOAD SWAP1 POP PUSH2 0x157 DUP2 PUSH2 0x133 JUMP JUMPDEST SWAP3 SWAP2 POP POP JUMP JUMPDEST PUSH0 DUP2 SWAP1 POP SWAP2 SWAP1 POP JUMP JUMPDEST PUSH2 0x16F DUP2 PUSH2 0x15D JUMP JUMPDEST DUP2 EQ PUSH2 0x179 JUMPI PUSH0 DUP1 REVERT JUMPDEST POP JUMP JUMPDEST PUSH0 DUP2 MLOAD SWAP1 POP PUSH2 0x18A DUP2 PUSH2 0x166 JUMP JUMPDEST SWAP3 SWAP2 POP POP JUMP JUMPDEST PUSH0 DUP1 PUSH0 PUSH1 0x60 DUP5 DUP7 SUB SLT ISZERO PUSH2 0x1A7 JUMPI PUSH2 0x1A6 PUSH2 0xFF JUMP JUMPDEST JUMPDEST PUSH0 PUSH2 0x1B4 DUP7 DUP3 DUP8 ADD PUSH2 0x149 JUMP JUMPDEST SWAP4 POP POP PUSH1 0x20 PUSH2 0x1C5 DUP7 DUP3 DUP8 ADD PUSH2 0x149 JUMP JUMPDEST SWAP3 POP POP PUSH1 0x40 PUSH2 0x1D6 DUP7 DUP3 DUP8 ADD PUSH2 0x17C JUMP JUMPDEST SWAP2 POP POP SWAP3 POP SWAP3 POP SWAP3 JUMP JUMPDEST PUSH2 0xE3D DUP1 PUSH2 0x1ED PUSH0 CODECOPY PUSH0 RETURN INVALID PUSH1 0x80 PUSH1 0x40 MSTORE CALLVALUE DUP1 ISZERO PUSH2 0xF JUMPI PUSH0 DUP1 REVERT JUMPDEST POP PUSH1 0x4 CALLDATASIZE LT PUSH2 0x7B JUMPI PUSH0 CALLDATALOAD PUSH1 0xE0 SHR DUP1 PUSH4 0x5F64B55B GT PUSH2 0x59 JUMPI DUP1 PUSH4 0x5F64B55B EQ PUSH2 0xD7 JUMPI DUP1 PUSH4 0x8DA5CB5B EQ PUSH2 0xF5 JUMPI DUP1 PUSH4 0xDB068E0E EQ PUSH2 0x113 JUMPI DUP1 PUSH4 0xE4B80048 EQ PUSH2 0x12F JUMPI PUSH2 0x7B JUMP JUMPDEST DUP1 PUSH4 0xFC63D10 EQ PUSH2 0x7F JUMPI DUP1 PUSH4 0x3494B099 EQ PUSH2 0x9D JUMPI DUP1 PUSH4 0x3BA0B9A9 EQ PUSH2 0xB9 JUMPI JUMPDEST PUSH0 DUP1 REVERT JUMPDEST PUSH2 0x87 PUSH2 0x14B JUMP JUMPDEST PUSH1 0x40 MLOAD PUSH2 0x94 SWAP2 SWAP1 PUSH2 0x8F2 JUMP JUMPDEST PUSH1 0x40 MLOAD DUP1 SWAP2 SUB SWAP1 RETURN JUMPDEST PUSH2 0xB7 PUSH1 0x4 DUP1 CALLDATASIZE SUB DUP2 ADD SWAP1 PUSH2 0xB2 SWAP2 SWAP1 PUSH2 0x942 JUMP JUMPDEST PUSH2 0x170 JUMP JUMPDEST STOP JUMPDEST PUSH2 0xC1 PUSH2 0x466 JUMP JUMPDEST PUSH1 0x40 MLOAD PUSH2 0xCE SWAP2 SWAP1 PUSH2 0x97C JUMP JUMPDEST PUSH1 0x40 MLOAD DUP1 SWAP2 SUB SWAP1 RETURN JUMPDEST PUSH2 0xDF PUSH2 0x46C JUMP JUMPDEST PUSH1 0x40 MLOAD PUSH2 0xEC SWAP2 SWAP1 PUSH2 0x8F2 JUMP JUMPDEST PUSH1 0x40 MLOAD DUP1 SWAP2 SUB SWAP1 RETURN JUMPDEST PUSH2 0xFD PUSH2 0x491 JUMP JUMPDEST PUSH1 0x40 MLOAD PUSH2 0x10A SWAP2 SWAP1 PUSH2 0x9B5 JUMP JUMPDEST PUSH1 0x40 MLOAD DUP1 SWAP2 SUB SWAP1 RETURN JUMPDEST PUSH2 0x12D PUSH1 0x4 DUP1 CALLDATASIZE SUB DUP2 ADD SWAP1 PUSH2 0x128 SWAP2 SWAP1 PUSH2 0x942 JUMP JUMPDEST PUSH2 0x4B4 JUMP JUMPDEST STOP JUMPDEST PUSH2 0x149 PUSH1 0x4 DUP1 CALLDATASIZE SUB DUP2 ADD SWAP1 PUSH2 0x144 SWAP2 SWAP1 PUSH2 0x942 JUMP JUMPDEST PUSH2 0x582 JUMP JUMPDEST STOP JUMPDEST PUSH1 0x1 PUSH0 SWAP1 SLOAD SWAP1 PUSH2 0x100 EXP SWAP1 DIV PUSH20 0xFFFFFFFFFFFFFFFFFFFFFFFFFFFFFFFFFFFFFFFF AND DUP2 JUMP JUMPDEST PUSH0 PUSH8 0xDE0B6B3A7640000 PUSH1 0x3 SLOAD DUP4 PUSH2 0x188 SWAP2 SWAP1 PUSH2 0x9FB JUMP JUMPDEST PUSH2 0x192 SWAP2 SWAP1 PUSH2 0xA69 JUMP JUMPDEST SWAP1 POP DUP1 PUSH1 0x2 PUSH0 SWAP1 SLOAD SWAP1 PUSH2 0x100 EXP SWAP1 DIV PUSH20 0xFFFFFFFFFFFFFFFFFFFFFFFFFFFFFFFFFFFFFFFF AND PUSH20 0xFFFFFFFFFFFFFFFFFFFFFFFFFFFFFFFFFFFFFFFF AND PUSH4 0x70A08231 ADDRESS PUSH1 0x40 MLOAD DUP3 PUSH4 0xFFFFFFFF AND PUSH1 0xE0 SHL DUP2 MSTORE PUSH1 0x4 ADD PUSH2 0x1EF SWAP2 SWAP1 PUSH2 0x9B5 JUMP JUMPDEST PUSH1 0x20 PUSH1 0x40 MLOAD DUP1 DUP4 SUB DUP2 DUP7 GAS STATICCALL ISZERO DUP1 ISZERO PUSH2 0x20A JUMPI RETURNDATASIZE PUSH0 DUP1 RETURNDATACOPY RETURNDATASIZE PUSH0 REVERT JUMPDEST POP POP POP POP PUSH1 0x40 MLOAD RETURNDATASIZE PUSH1 0x1F NOT PUSH1 0x1F DUP3 ADD AND DUP3 ADD DUP1 PUSH1 0x40 MSTORE POP DUP2 ADD SWAP1 PUSH2 0x22E SWAP2 SWAP1 PUSH2 0xAAD JUMP JUMPDEST LT ISZERO PUSH2 0x26F JUMPI PUSH1 0x40 MLOAD PUSH32 0x8C379A000000000000000000000000000000000000000000000000000000000 DUP2 MSTORE PUSH1 0x4 ADD PUSH2 0x266 SWAP1 PUSH2 0xB32 JUMP JUMPDEST PUSH1 0x40 MLOAD DUP1 SWAP2 SUB SWAP1 REVERT JUMPDEST PUSH1 0x1 PUSH0 SWAP1 SLOAD SWAP1 PUSH2 0x100 EXP SWAP1 DIV PUSH20 0xFFFFFFFFFFFFFFFFFFFFFFFFFFFFFFFFFFFFFFFF AND PUSH20 0xFFFFFFFFFFFFFFFFFFFFFFFFFFFFFFFFFFFFFFFF AND PUSH4 0x23B872DD CALLER ADDRESS DUP6 PUSH1 0x40 MLOAD DUP5 PUSH4 0xFFFFFFFF AND PUSH1 0xE0 SHL DUP2 MSTORE PUSH1 0x4 ADD PUSH2 0x2CD SWAP4 SWAP3 SWAP2 SWAP1 PUSH2 0xB50 JUMP JUMPDEST PUSH1 0x20 PUSH1 0x40 MLOAD DUP1 DUP4 SUB DUP2 PUSH0 DUP8 GAS CALL ISZERO DUP1 ISZERO PUSH2 0x2E9 JUMPI RETURNDATASIZE PUSH0 DUP1 RETURNDATACOPY RETURNDATASIZE PUSH0 REVERT JUMPDEST POP POP POP POP PUSH1 0x40 MLOAD RETURNDATASIZE PUSH1 0x1F NOT PUSH1 0x1F DUP3 ADD AND DUP3 ADD DUP1 PUSH1 0x40 MSTORE POP DUP2 ADD SWAP1 PUSH2 0x30D SWAP2 SWAP1 PUSH2 0xBBA JUMP JUMPDEST PUSH2 0x34C JUMPI PUSH1 0x40 MLOAD PUSH32 0x8C379A000000000000000000000000000000000000000000000000000000000 DUP2 MSTORE PUSH1 0x4 ADD PUSH2 0x343 SWAP1 PUSH2 0xC2F JUMP JUMPDEST PUSH1 0x40 MLOAD DUP1 SWAP2 SUB SWAP1 REVERT JUMPDEST PUSH1 0x2 PUSH0 SWAP1 SLOAD SWAP1 PUSH2 0x100 EXP SWAP1 DIV PUSH20 0xFFFFFFFFFFFFFFFFFFFFFFFFFFFFFFFFFFFFFFFF AND PUSH20 0xFFFFFFFFFFFFFFFFFFFFFFFFFFFFFFFFFFFFFFFF AND PUSH4 0xA9059CBB CALLER DUP4 PUSH1 0x40 MLOAD DUP4 PUSH4 0xFFFFFFFF AND PUSH1 0xE0 SHL DUP2 MSTORE PUSH1 0x4 ADD PUSH2 0x3A8 SWAP3 SWAP2 SWAP1 PUSH2 0xC4D JUMP JUMPDEST PUSH1 0x20 PUSH1 0x40 MLOAD DUP1 DUP4 SUB DUP2 PUSH0 DUP8 GAS CALL ISZERO DUP1 ISZERO PUSH2 0x3C4 JUMPI RETURNDATASIZE PUSH0 DUP1 RETURNDATACOPY RETURNDATASIZE PUSH0 REVERT JUMPDEST POP POP POP POP PUSH1 0x40 MLOAD RETURNDATASIZE PUSH1 0x1F NOT PUSH1 0x1F DUP3 ADD AND DUP3 ADD DUP1 PUSH1 0x40 MSTORE POP DUP2 ADD SWAP1 PUSH2 0x3E8 SWAP2 SWAP1 PUSH2 0xBBA JUMP JUMPDEST PUSH2 0x427 JUMPI PUSH1 0x40 MLOAD PUSH32 0x8C379A000000000000000000000000000000000000000000000000000000000 DUP2 MSTORE PUSH1 0x4 ADD PUSH2 0x41E SWAP1 PUSH2 0xCBE JUMP JUMPDEST PUSH1 0x40 MLOAD DUP1 SWAP2 SUB SWAP1 REVERT JUMPDEST PUSH32 0x3D2365974E1553555CAAF8F39F1C92D01D98893B835FFADAE06AEE77E60768EA CALLER DUP4 DUP4 PUSH1 0x40 MLOAD PUSH2 0x45A SWAP4 SWAP3 SWAP2 SWAP1 PUSH2 0xCDC JUMP JUMPDEST PUSH1 0x40 MLOAD DUP1 SWAP2 SUB SWAP1 LOG1 POP POP JUMP JUMPDEST PUSH1 0x3 SLOAD DUP2 JUMP JUMPDEST PUSH1 0x2 PUSH0 SWAP1 SLOAD SWAP1 PUSH2 0x100 EXP SWAP1 DIV PUSH20 0xFFFFFFFFFFFFFFFFFFFFFFFFFFFFFFFFFFFFFFFF AND DUP2 JUMP JUMPDEST PUSH0 DUP1 SLOAD SWAP1 PUSH2 0x100 EXP SWAP1 DIV PUSH20 0xFFFFFFFFFFFFFFFFFFFFFFFFFFFFFFFFFFFFFFFF AND DUP2 JUMP JUMPDEST PUSH0 DUP1 SLOAD SWAP1 PUSH2 0x100 EXP SWAP1 DIV PUSH20 0xFFFFFFFFFFFFFFFFFFFFFFFFFFFFFFFFFFFFFFFF AND PUSH20 0xFFFFFFFFFFFFFFFFFFFFFFFFFFFFFFFFFFFFFFFF AND CALLER PUSH20 0xFFFFFFFFFFFFFFFFFFFFFFFFFFFFFFFFFFFFFFFF AND EQ PUSH2 0x541 JUMPI PUSH1 0x40 MLOAD PUSH32 0x8C379A000000000000000000000000000000000000000000000000000000000 DUP2 MSTORE PUSH1 0x4 ADD PUSH2 0x538 SWAP1 PUSH2 0xD81 JUMP JUMPDEST PUSH1 0x40 MLOAD DUP1 SWAP2 SUB SWAP1 REVERT JUMPDEST DUP1 PUSH1 0x3 DUP2 SWAP1 SSTORE POP PUSH32 0x388F446E9526FE5C9AF20A5919B342370C8A7C0CB05245AFE1E545658FA3CDBA DUP2 PUSH1 0x40 MLOAD PUSH2 0x577 SWAP2 SWAP1 PUSH2 0x97C JUMP JUMPDEST PUSH1 0x40 MLOAD DUP1 SWAP2 SUB SWAP1 LOG1 POP JUMP JUMPDEST PUSH0 PUSH1 0x3 SLOAD PUSH8 0xDE0B6B3A7640000 DUP4 PUSH2 0x59A SWAP2 SWAP1 PUSH2 0x9FB JUMP JUMPDEST PUSH2 0x5A4 SWAP2 SWAP1 PUSH2 0xA69 JUMP JUMPDEST SWAP1 POP DUP1 PUSH1 0x1 PUSH0 SWAP1 SLOAD SWAP1 PUSH2 0x100 EXP SWAP1 DIV PUSH20 0xFFFFFFFFFFFFFFFFFFFFFFFFFFFFFFFFFFFFFFFF AND PUSH20 0xFFFFFFFFFFFFFFFFFFFFFFFFFFFFFFFFFFFFFFFF AND PUSH4 0x70A08231 ADDRESS PUSH1 0x40 MLOAD DUP3 PUSH4 0xFFFFFFFF AND PUSH1 0xE0 SHL DUP2 MSTORE PUSH1 0x4 ADD PUSH2 0x601 SWAP2 SWAP1 PUSH2 0x9B5 JUMP JUMPDEST PUSH1 0x20 PUSH1 0x40 MLOAD DUP1 DUP4 SUB DUP2 DUP7 GAS STATICCALL ISZERO DUP1 ISZERO PUSH2 0x61C JUMPI RETURNDATASIZE PUSH0 DUP1 RETURNDATACOPY RETURNDATASIZE PUSH0 REVERT JUMPDEST POP POP POP POP PUSH1 0x40 MLOAD RETURNDATASIZE PUSH1 0x1F NOT PUSH1 0x1F DUP3 ADD AND DUP3 ADD DUP1 PUSH1 0x40 MSTORE POP DUP2 ADD SWAP1 PUSH2 0x640 SWAP2 SWAP1 PUSH2 0xAAD JUMP JUMPDEST LT ISZERO PUSH2 0x681 JUMPI PUSH1 0x40 MLOAD PUSH32 0x8C379A000000000000000000000000000000000000000000000000000000000 DUP2 MSTORE PUSH1 0x4 ADD PUSH2 0x678 SWAP1 PUSH2 0xDE9 JUMP JUMPDEST PUSH1 0x40 MLOAD DUP1 SWAP2 SUB SWAP1 REVERT JUMPDEST PUSH1 0x2 PUSH0 SWAP1 SLOAD SWAP1 PUSH2 0x100 EXP SWAP1 DIV PUSH20 0xFFFFFFFFFFFFFFFFFFFFFFFFFFFFFFFFFFFFFFFF AND PUSH20 0xFFFFFFFFFFFFFFFFFFFFFFFFFFFFFFFFFFFFFFFF AND PUSH4 0x23B872DD CALLER ADDRESS DUP6 PUSH1 0x40 MLOAD DUP5 PUSH4 0xFFFFFFFF AND PUSH1 0xE0 SHL DUP2 MSTORE PUSH1 0x4 ADD PUSH2 0x6DF SWAP4 SWAP3 SWAP2 SWAP1 PUSH2 0xB50 JUMP JUMPDEST PUSH1 0x20 PUSH1 0x40 MLOAD DUP1 DUP4 SUB DUP2 PUSH0 DUP8 GAS CALL ISZERO DUP1 ISZERO PUSH2 0x6FB JUMPI RETURNDATASIZE PUSH0 DUP1 RETURNDATACOPY RETURNDATASIZE PUSH0 REVERT JUMPDEST POP POP POP POP PUSH1 0x40 MLOAD RETURNDATASIZE PUSH1 0x1F NOT PUSH1 0x1F DUP3 ADD AND DUP3 ADD DUP1 PUSH1 0x40 MSTORE POP DUP2 ADD SWAP1 PUSH2 0x71F SWAP2 SWAP1 PUSH2 0xBBA JUMP JUMPDEST PUSH2 0x75E JUMPI PUSH1 0x40 MLOAD PUSH32 0x8C379A000000000000000000000000000000000000000000000000000000000 DUP2 MSTORE PUSH1 0x4 ADD PUSH2 0x755 SWAP1 PUSH2 0xCBE JUMP JUMPDEST PUSH1 0x40 MLOAD DUP1 SWAP2 SUB SWAP1 REVERT JUMPDEST PUSH1 0x1 PUSH0 SWAP1 SLOAD SWAP1 PUSH2 0x100 EXP SWAP1 DIV PUSH20 0xFFFFFFFFFFFFFFFFFFFFFFFFFFFFFFFFFFFFFFFF AND PUSH20 0xFFFFFFFFFFFFFFFFFFFFFFFFFFFFFFFFFFFFFFFF AND PUSH4 0xA9059CBB CALLER DUP4 PUSH1 0x40 MLOAD DUP4 PUSH4 0xFFFFFFFF AND PUSH1 0xE0 SHL DUP2 MSTORE PUSH1 0x4 ADD PUSH2 0x7BA SWAP3 SWAP2 SWAP1 PUSH2 0xC4D JUMP JUMPDEST PUSH1 0x20 PUSH1 0x40 MLOAD DUP1 DUP4 SUB DUP2 PUSH0 DUP8 GAS CALL ISZERO DUP1 ISZERO PUSH2 0x7D6 JUMPI RETURNDATASIZE PUSH0 DUP1 RETURNDATACOPY RETURNDATASIZE PUSH0 REVERT JUMPDEST POP POP POP POP PUSH1 0x40 MLOAD RETURNDATASIZE PUSH1 0x1F NOT PUSH1 0x1F DUP3 ADD AND DUP3 ADD DUP1 PUSH1 0x40 MSTORE POP DUP2 ADD SWAP1 PUSH2 0x7FA SWAP2 SWAP1 PUSH2 0xBBA JUMP JUMPDEST PUSH2 0x839 JUMPI PUSH1 0x40 MLOAD PUSH32 0x8C379A000000000000000000000000000000000000000000000000000000000 DUP2 MSTORE PUSH1 0x4 ADD PUSH2 0x830 SWAP1 PUSH2 0xC2F JUMP JUMPDEST PUSH1 0x40 MLOAD DUP1 SWAP2 SUB SWAP1 REVERT JUMPDEST PUSH32 0x5FA2719218F2053E6B155C250CEDF89473581044ADE40B052B581C03089658A2 CALLER DUP4 DUP4 PUSH1 0x40 MLOAD PUSH2 0x86C SWAP4 SWAP3 SWAP2 SWAP1 PUSH2 0xCDC JUMP JUMPDEST PUSH1 0x40 MLOAD DUP1 SWAP2 SUB SWAP1 LOG1 POP POP JUMP JUMPDEST PUSH0 PUSH20 0xFFFFFFFFFFFFFFFFFFFFFFFFFFFFFFFFFFFFFFFF DUP3 AND SWAP1 POP SWAP2 SWAP1 POP JUMP JUMPDEST PUSH0 DUP2 SWAP1 POP SWAP2 SWAP1 POP JUMP JUMPDEST PUSH0 PUSH2 0x8BA PUSH2 0x8B5 PUSH2 0x8B0 DUP5 PUSH2 0x878 JUMP JUMPDEST PUSH2 0x897 JUMP JUMPDEST PUSH2 0x878 JUMP JUMPDEST SWAP1 POP SWAP2 SWAP1 POP JUMP JUMPDEST PUSH0 PUSH2 0x8CB DUP3 PUSH2 0x8A0 JUMP JUMPDEST SWAP1 POP SWAP2 SWAP1 POP JUMP JUMPDEST PUSH0 PUSH2 0x8DC DUP3 PUSH2 0x8C1 JUMP JUMPDEST SWAP1 POP SWAP2 SWAP1 POP JUMP JUMPDEST PUSH2 0x8EC DUP2 PUSH2 0x8D2 JUMP JUMPDEST DUP3 MSTORE POP POP JUMP JUMPDEST PUSH0 PUSH1 0x20 DUP3 ADD SWAP1 POP PUSH2 0x905 PUSH0 DUP4 ADD DUP5 PUSH2 0x8E3 JUMP JUMPDEST SWAP3 SWAP2 POP POP JUMP JUMPDEST PUSH0 DUP1 REVERT JUMPDEST PUSH0 DUP2 SWAP1 POP SWAP2 SWAP1 POP JUMP JUMPDEST PUSH2 0x921 DUP2 PUSH2 0x90F JUMP JUMPDEST DUP2 EQ PUSH2 0x92B JUMPI PUSH0 DUP1 REVERT JUMPDEST POP JUMP JUMPDEST PUSH0 DUP2 CALLDATALOAD SWAP1 POP PUSH2 0x93C DUP2 PUSH2 0x918 JUMP JUMPDEST SWAP3 SWAP2 POP POP JUMP JUMPDEST PUSH0 PUSH1 0x20 DUP3 DUP5 SUB SLT ISZERO PUSH2 0x957 JUMPI PUSH2 0x956 PUSH2 0x90B JUMP JUMPDEST JUMPDEST PUSH0 PUSH2 0x964 DUP5 DUP3 DUP6 ADD PUSH2 0x92E JUMP JUMPDEST SWAP2 POP POP SWAP3 SWAP2 POP POP JUMP JUMPDEST PUSH2 0x976 DUP2 PUSH2 0x90F JUMP JUMPDEST DUP3 MSTORE POP POP JUMP JUMPDEST PUSH0 PUSH1 0x20 DUP3 ADD SWAP1 POP PUSH2 0x98F PUSH0 DUP4 ADD DUP5 PUSH2 0x96D JUMP JUMPDEST SWAP3 SWAP2 POP POP JUMP JUMPDEST PUSH0 PUSH2 0x99F DUP3 PUSH2 0x878 JUMP JUMPDEST SWAP1 POP SWAP2 SWAP1 POP JUMP JUMPDEST PUSH2 0x9AF DUP2 PUSH2 0x995 JUMP JUMPDEST DUP3 MSTORE POP POP JUMP JUMPDEST PUSH0 PUSH1 0x20 DUP3 ADD SWAP1 POP PUSH2 0x9C8 PUSH0 DUP4 ADD DUP5 PUSH2 0x9A6 JUMP JUMPDEST SWAP3 SWAP2 POP POP JUMP JUMPDEST PUSH32 0x4E487B7100000000000000000000000000000000000000000000000000000000 PUSH0 MSTORE PUSH1 0x11 PUSH1 0x4 MSTORE PUSH1 0x24 PUSH0 REVERT JUMPDEST PUSH0 PUSH2 0xA05 DUP3 PUSH2 0x90F JUMP JUMPDEST SWAP2 POP PUSH2 0xA10 DUP4 PUSH2 0x90F JUMP JUMPDEST SWAP3 POP DUP3 DUP3 MUL PUSH2 0xA1E DUP2 PUSH2 0x90F JUMP JUMPDEST SWAP2 POP DUP3 DUP3 DIV DUP5 EQ DUP4 ISZERO OR PUSH2 0xA35 JUMPI PUSH2 0xA34 PUSH2 0x9CE JUMP JUMPDEST JUMPDEST POP SWAP3 SWAP2 POP POP JUMP JUMPDEST PUSH32 0x4E487B7100000000000000000000000000000000000000000000000000000000 PUSH0 MSTORE PUSH1 0x12 PUSH1 0x4 MSTORE PUSH1 0x24 PUSH0 REVERT JUMPDEST PUSH0 PUSH2 0xA73 DUP3 PUSH2 0x90F JUMP JUMPDEST SWAP2 POP PUSH2 0xA7E DUP4 PUSH2 0x90F JUMP JUMPDEST SWAP3 POP DUP3 PUSH2 0xA8E JUMPI PUSH2 0xA8D PUSH2 0xA3C JUMP JUMPDEST JUMPDEST DUP3 DUP3 DIV SWAP1 POP SWAP3 SWAP2 POP POP JUMP JUMPDEST PUSH0 DUP2 MLOAD SWAP1 POP PUSH2 0xAA7 DUP2 PUSH2 0x918 JUMP JUMPDEST SWAP3 SWAP2 POP POP JUMP JUMPDEST PUSH0 PUSH1 0x20 DUP3 DUP5 SUB SLT ISZERO PUSH2 0xAC2 JUMPI PUSH2 0xAC1 PUSH2 0x90B JUMP JUMPDEST JUMPDEST PUSH0 PUSH2 0xACF DUP5 DUP3 DUP6 ADD PUSH2 0xA99 JUMP JUMPDEST SWAP2 POP POP SWAP3 SWAP2 POP POP JUMP JUMPDEST PUSH0 DUP3 DUP3 MSTORE PUSH1 0x20 DUP3 ADD SWAP1 POP SWAP3 SWAP2 POP POP JUMP JUMPDEST PUSH32 0x4E6F7420656E6F75676820746F6B656E42206C69717569646974792E00000000 PUSH0 DUP3 ADD MSTORE POP JUMP JUMPDEST PUSH0 PUSH2 0xB1C PUSH1 0x1C DUP4 PUSH2 0xAD8 JUMP JUMPDEST SWAP2 POP PUSH2 0xB27 DUP3 PUSH2 0xAE8 JUMP JUMPDEST PUSH1 0x20 DUP3 ADD SWAP1 POP SWAP2 SWAP1 POP JUMP JUMPDEST PUSH0 PUSH1 0x20 DUP3 ADD SWAP1 POP DUP2 DUP2 SUB PUSH0 DUP4 ADD MSTORE PUSH2 0xB49 DUP2 PUSH2 0xB10 JUMP JUMPDEST SWAP1 POP SWAP2 SWAP1 POP JUMP JUMPDEST PUSH0 PUSH1 0x60 DUP3 ADD SWAP1 POP PUSH2 0xB63 PUSH0 DUP4 ADD DUP7 PUSH2 0x9A6 JUMP JUMPDEST PUSH2 0xB70 PUSH1 0x20 DUP4 ADD DUP6 PUSH2 0x9A6 JUMP JUMPDEST PUSH2 0xB7D PUSH1 0x40 DUP4 ADD DUP5 PUSH2 0x96D JUMP JUMPDEST SWAP5 SWAP4 POP POP POP POP JUMP JUMPDEST PUSH0 DUP2 ISZERO ISZERO SWAP1 POP SWAP2 SWAP1 POP JUMP JUMPDEST PUSH2 0xB99 DUP2 PUSH2 0xB85 JUMP JUMPDEST DUP2 EQ PUSH2 0xBA3 JUMPI PUSH0 DUP1 REVERT JUMPDEST POP JUMP JUMPDEST PUSH0 DUP2 MLOAD SWAP1 POP PUSH2 0xBB4 DUP2 PUSH2 0xB90 JUMP JUMPDEST SWAP3 SWAP2 POP POP JUMP JUMPDEST PUSH0 PUSH1 0x20 DUP3 DUP5 SUB SLT ISZERO PUSH2 0xBCF JUMPI PUSH2 0xBCE PUSH2 0x90B JUMP JUMPDEST JUMPDEST PUSH0 PUSH2 0xBDC DUP5 DUP3 DUP6 ADD PUSH2 0xBA6 JUMP JUMPDEST SWAP2 POP POP SWAP3 SWAP2 POP POP JUMP JUMPDEST PUSH32 0x546F6B656E41207472616E73666572206661696C65642E000000000000000000 PUSH0 DUP3 ADD MSTORE POP JUMP JUMPDEST PUSH0 PUSH2 0xC19 PUSH1 0x17 DUP4 PUSH2 0xAD8 JUMP JUMPDEST SWAP2 POP PUSH2 0xC24 DUP3 PUSH2 0xBE5 JUMP JUMPDEST PUSH1 0x20 DUP3 ADD SWAP1 POP SWAP2 SWAP1 POP JUMP JUMPDEST PUSH0 PUSH1 0x20 DUP3 ADD SWAP1 POP DUP2 DUP2 SUB PUSH0 DUP4 ADD MSTORE PUSH2 0xC46 DUP2 PUSH2 0xC0D JUMP JUMPDEST SWAP1 POP SWAP2 SWAP1 POP JUMP JUMPDEST PUSH0 PUSH1 0x40 DUP3 ADD SWAP1 POP PUSH2 0xC60 PUSH0 DUP4 ADD DUP6 PUSH2 0x9A6 JUMP JUMPDEST PUSH2 0xC6D PUSH1 0x20 DUP4 ADD DUP5 PUSH2 0x96D JUMP JUMPDEST SWAP4 SWAP3 POP POP POP JUMP JUMPDEST PUSH32 0x546F6B656E42207472616E73666572206661696C65642E000000000000000000 PUSH0 DUP3 ADD MSTORE POP JUMP JUMPDEST PUSH0 PUSH2 0xCA8 PUSH1 0x17 DUP4 PUSH2 0xAD8 JUMP JUMPDEST SWAP2 POP PUSH2 0xCB3 DUP3 PUSH2 0xC74 JUMP JUMPDEST PUSH1 0x20 DUP3 ADD SWAP1 POP SWAP2 SWAP1 POP JUMP JUMPDEST PUSH0 PUSH1 0x20 DUP3 ADD SWAP1 POP DUP2 DUP2 SUB PUSH0 DUP4 ADD MSTORE PUSH2 0xCD5 DUP2 PUSH2 0xC9C JUMP JUMPDEST SWAP1 POP SWAP2 SWAP1 POP JUMP JUMPDEST PUSH0 PUSH1 0x60 DUP3 ADD SWAP1 POP PUSH2 0xCEF PUSH0 DUP4 ADD DUP7 PUSH2 0x9A6 JUMP JUMPDEST PUSH2 0xCFC PUSH1 0x20 DUP4 ADD DUP6 PUSH2 0x96D JUMP JUMPDEST PUSH2 0xD09 PUSH1 0x40 DUP4 ADD DUP5 PUSH2 0x96D JUMP JUMPDEST SWAP5 SWAP4 POP POP POP POP JUMP JUMPDEST PUSH32 0x4F6E6C7920746865206F776E65722063616E20706572666F726D207468697320 PUSH0 DUP3 ADD MSTORE PUSH32 0x616374696F6E2E00000000000000000000000000000000000000000000000000 PUSH1 0x20 DUP3 ADD MSTORE POP JUMP JUMPDEST PUSH0 PUSH2 0xD6B PUSH1 0x27 DUP4 PUSH2 0xAD8 JUMP JUMPDEST SWAP2 POP PUSH2 0xD76 DUP3 PUSH2 0xD11 JUMP JUMPDEST PUSH1 0x40 DUP3 ADD SWAP1 POP SWAP2 SWAP1 POP JUMP JUMPDEST PUSH0 PUSH1 0x20 DUP3 ADD SWAP1 POP DUP2 DUP2 SUB PUSH0 DUP4 ADD MSTORE PUSH2 0xD98 DUP2 PUSH2 0xD5F JUMP JUMPDEST SWAP1 POP SWAP2 SWAP1 POP JUMP JUMPDEST PUSH32 0x4E6F7420656E6F75676820746F6B656E41206C69717569646974792E00000000 PUSH0 DUP3 ADD MSTORE POP JUMP JUMPDEST PUSH0 PUSH2 0xDD3 PUSH1 0x1C DUP4 PUSH2 0xAD8 JUMP JUMPDEST SWAP2 POP PUSH2 0xDDE DUP3 PUSH2 0xD9F JUMP JUMPDEST PUSH1 0x20 DUP3 ADD SWAP1 POP SWAP2 SWAP1 POP JUMP JUMPDEST PUSH0 PUSH1 0x20 DUP3 ADD SWAP1 POP DUP2 DUP2 SUB PUSH0 DUP4 ADD MSTORE PUSH2 0xE00 DUP2 PUSH2 0xDC7 JUMP JUMPDEST SWAP1 POP SWAP2 SWAP1 POP JUMP INVALID LOG2 PUSH5 0x6970667358 0x22 SLT KECCAK256 0x4C SELFDESTRUCT 0x25 0x2C 0xBB PUSH10 0x9F3BF8606CB8F7BB7E05 0xAD CREATE2 SLOAD BLOBBASEFEE SDIV 0x2D JUMPI 0xC4 0xC5 MSIZE DUP12 SWAP11 RETURNDATASIZE PUSH8 0x51F664736F6C6343 STOP ADDMOD BYTE STOP CALLER "
		},
		"gasEstimates": {
			"creation": {
				"codeDepositCost": "729000",
				"executionCost": "infinite",
				"totalCost": "infinite"
			},
			"external": {
				"exchangeRate()": "2470",
				"exchangeTokenAForTokenB(uint256)": "infinite",
				"exchangeTokenBForTokenA(uint256)": "infinite",
				"owner()": "2527",
				"setExchangeRate(uint256)": "infinite",
				"tokenA()": "infinite",
				"tokenB()": "infinite"
			}
		},
		"methodIdentifiers": {
			"exchangeRate()": "3ba0b9a9",
			"exchangeTokenAForTokenB(uint256)": "3494b099",
			"exchangeTokenBForTokenA(uint256)": "e4b80048",
			"owner()": "8da5cb5b",
			"setExchangeRate(uint256)": "db068e0e",
			"tokenA()": "0fc63d10",
			"tokenB()": "5f64b55b"
		}
	},
	"abi": [
		{
			"inputs": [
				{
					"internalType": "address",
					"name": "_tokenA",
					"type": "address"
				},
				{
					"internalType": "address",
					"name": "_tokenB",
					"type": "address"
				},
				{
					"internalType": "uint256",
					"name": "_exchangeRate",
					"type": "uint256"
				}
			],
			"stateMutability": "nonpayable",
			"type": "constructor"
		},
		{
			"anonymous": false,
			"inputs": [
				{
					"indexed": false,
					"internalType": "uint256",
					"name": "newRate",
					"type": "uint256"
				}
			],
			"name": "ExchangeRateUpdated",
			"type": "event"
		},
		{
			"anonymous": false,
			"inputs": [
				{
					"indexed": false,
					"internalType": "address",
					"name": "user",
					"type": "address"
				},
				{
					"indexed": false,
					"internalType": "uint256",
					"name": "amountA",
					"type": "uint256"
				},
				{
					"indexed": false,
					"internalType": "uint256",
					"name": "amountB",
					"type": "uint256"
				}
			],
			"name": "ExchangedTokenAForTokenB",
			"type": "event"
		},
		{
			"anonymous": false,
			"inputs": [
				{
					"indexed": false,
					"internalType": "address",
					"name": "user",
					"type": "address"
				},
				{
					"indexed": false,
					"internalType": "uint256",
					"name": "amountB",
					"type": "uint256"
				},
				{
					"indexed": false,
					"internalType": "uint256",
					"name": "amountA",
					"type": "uint256"
				}
			],
			"name": "ExchangedTokenBForTokenA",
			"type": "event"
		},
		{
			"inputs": [],
			"name": "exchangeRate",
			"outputs": [
				{
					"internalType": "uint256",
					"name": "",
					"type": "uint256"
				}
			],
			"stateMutability": "view",
			"type": "function"
		},
		{
			"inputs": [
				{
					"internalType": "uint256",
					"name": "amountA",
					"type": "uint256"
				}
			],
			"name": "exchangeTokenAForTokenB",
			"outputs": [],
			"stateMutability": "nonpayable",
			"type": "function"
		},
		{
			"inputs": [
				{
					"internalType": "uint256",
					"name": "amountB",
					"type": "uint256"
				}
			],
			"name": "exchangeTokenBForTokenA",
			"outputs": [],
			"stateMutability": "nonpayable",
			"type": "function"
		},
		{
			"inputs": [],
			"name": "owner",
			"outputs": [
				{
					"internalType": "address",
					"name": "",
					"type": "address"
				}
			],
			"stateMutability": "view",
			"type": "function"
		},
		{
			"inputs": [
				{
					"internalType": "uint256",
					"name": "_newRate",
					"type": "uint256"
				}
			],
			"name": "setExchangeRate",
			"outputs": [],
			"stateMutability": "nonpayable",
			"type": "function"
		},
		{
			"inputs": [],
			"name": "tokenA",
			"outputs": [
				{
					"internalType": "contract IERC20",
					"name": "",
					"type": "address"
				}
			],
			"stateMutability": "view",
			"type": "function"
		},
		{
			"inputs": [],
			"name": "tokenB",
			"outputs": [
				{
					"internalType": "contract IERC20",
					"name": "",
					"type": "address"
				}
			],
			"stateMutability": "view",
			"type": "function"
		}
	]
}